{
  "_format": "hh-sol-artifact-1",
  "contractName": "NFTMarket",
  "sourceName": "contracts/NFTMarket.sol",
  "abi": [
    {
      "inputs": [],
      "stateMutability": "nonpayable",
      "type": "constructor"
    },
    {
      "anonymous": false,
      "inputs": [
        {
          "indexed": true,
          "internalType": "address",
          "name": "owner",
          "type": "address"
        },
        {
          "indexed": true,
          "internalType": "address",
          "name": "approved",
          "type": "address"
        },
        {
          "indexed": true,
          "internalType": "uint256",
          "name": "tokenId",
          "type": "uint256"
        }
      ],
      "name": "Approval",
      "type": "event"
    },
    {
      "anonymous": false,
      "inputs": [
        {
          "indexed": true,
          "internalType": "address",
          "name": "owner",
          "type": "address"
        },
        {
          "indexed": true,
          "internalType": "address",
          "name": "operator",
          "type": "address"
        },
        {
          "indexed": false,
          "internalType": "bool",
          "name": "approved",
          "type": "bool"
        }
      ],
      "name": "ApprovalForAll",
      "type": "event"
    },
    {
      "anonymous": false,
      "inputs": [
        {
          "indexed": true,
          "internalType": "uint256",
          "name": "tokenId",
          "type": "uint256"
        },
        {
          "indexed": false,
          "internalType": "address",
          "name": "seller",
          "type": "address"
        },
        {
          "indexed": false,
          "internalType": "address",
          "name": "owner",
          "type": "address"
        },
        {
          "indexed": false,
          "internalType": "uint256",
          "name": "price",
          "type": "uint256"
        },
        {
          "indexed": false,
          "internalType": "bool",
          "name": "sold",
          "type": "bool"
        }
      ],
      "name": "MarketItemCreated",
      "type": "event"
    },
    {
      "anonymous": false,
      "inputs": [
        {
          "indexed": true,
          "internalType": "address",
          "name": "from",
          "type": "address"
        },
        {
          "indexed": true,
          "internalType": "address",
          "name": "to",
          "type": "address"
        },
        {
          "indexed": true,
          "internalType": "uint256",
          "name": "tokenId",
          "type": "uint256"
        }
      ],
      "name": "Transfer",
      "type": "event"
    },
    {
      "inputs": [
        {
          "internalType": "address",
          "name": "to",
          "type": "address"
        },
        {
          "internalType": "uint256",
          "name": "tokenId",
          "type": "uint256"
        }
      ],
      "name": "approve",
      "outputs": [],
      "stateMutability": "nonpayable",
      "type": "function"
    },
    {
      "inputs": [
        {
          "internalType": "address",
          "name": "owner",
          "type": "address"
        }
      ],
      "name": "balanceOf",
      "outputs": [
        {
          "internalType": "uint256",
          "name": "",
          "type": "uint256"
        }
      ],
      "stateMutability": "view",
      "type": "function"
    },
    {
      "inputs": [
        {
          "internalType": "uint256",
          "name": "tokenId",
          "type": "uint256"
        }
      ],
      "name": "createMarketSale",
      "outputs": [],
      "stateMutability": "payable",
      "type": "function"
    },
    {
      "inputs": [
        {
          "internalType": "string",
          "name": "tokenURI",
          "type": "string"
        },
        {
          "internalType": "uint256",
          "name": "price",
          "type": "uint256"
        }
      ],
      "name": "createToken",
      "outputs": [
        {
          "internalType": "uint256",
          "name": "",
          "type": "uint256"
        }
      ],
      "stateMutability": "payable",
      "type": "function"
    },
    {
      "inputs": [],
      "name": "fetchItemsListed",
      "outputs": [
        {
          "components": [
            {
              "internalType": "uint256",
              "name": "tokenId",
              "type": "uint256"
            },
            {
              "internalType": "address payable",
              "name": "seller",
              "type": "address"
            },
            {
              "internalType": "address payable",
              "name": "owner",
              "type": "address"
            },
            {
              "internalType": "uint256",
              "name": "price",
              "type": "uint256"
            },
            {
              "internalType": "bool",
              "name": "sold",
              "type": "bool"
            }
          ],
          "internalType": "struct NFTMarket.MarketItem[]",
          "name": "",
          "type": "tuple[]"
        }
      ],
      "stateMutability": "view",
      "type": "function"
    },
    {
      "inputs": [],
      "name": "fetchMarketItems",
      "outputs": [
        {
          "components": [
            {
              "internalType": "uint256",
              "name": "tokenId",
              "type": "uint256"
            },
            {
              "internalType": "address payable",
              "name": "seller",
              "type": "address"
            },
            {
              "internalType": "address payable",
              "name": "owner",
              "type": "address"
            },
            {
              "internalType": "uint256",
              "name": "price",
              "type": "uint256"
            },
            {
              "internalType": "bool",
              "name": "sold",
              "type": "bool"
            }
          ],
          "internalType": "struct NFTMarket.MarketItem[]",
          "name": "",
          "type": "tuple[]"
        }
      ],
      "stateMutability": "view",
      "type": "function"
    },
    {
      "inputs": [],
      "name": "fetchMyNFTs",
      "outputs": [
        {
          "components": [
            {
              "internalType": "uint256",
              "name": "tokenId",
              "type": "uint256"
            },
            {
              "internalType": "address payable",
              "name": "seller",
              "type": "address"
            },
            {
              "internalType": "address payable",
              "name": "owner",
              "type": "address"
            },
            {
              "internalType": "uint256",
              "name": "price",
              "type": "uint256"
            },
            {
              "internalType": "bool",
              "name": "sold",
              "type": "bool"
            }
          ],
          "internalType": "struct NFTMarket.MarketItem[]",
          "name": "",
          "type": "tuple[]"
        }
      ],
      "stateMutability": "view",
      "type": "function"
    },
    {
      "inputs": [
        {
          "internalType": "uint256",
          "name": "tokenId",
          "type": "uint256"
        }
      ],
      "name": "getApproved",
      "outputs": [
        {
          "internalType": "address",
          "name": "",
          "type": "address"
        }
      ],
      "stateMutability": "view",
      "type": "function"
    },
    {
      "inputs": [],
      "name": "getListingPrice",
      "outputs": [
        {
          "internalType": "uint256",
          "name": "",
          "type": "uint256"
        }
      ],
      "stateMutability": "view",
      "type": "function"
    },
    {
      "inputs": [],
      "name": "getOwner",
      "outputs": [
        {
          "internalType": "address payable",
          "name": "",
          "type": "address"
        }
      ],
      "stateMutability": "view",
      "type": "function"
    },
    {
      "inputs": [
        {
          "internalType": "address",
          "name": "owner",
          "type": "address"
        },
        {
          "internalType": "address",
          "name": "operator",
          "type": "address"
        }
      ],
      "name": "isApprovedForAll",
      "outputs": [
        {
          "internalType": "bool",
          "name": "",
          "type": "bool"
        }
      ],
      "stateMutability": "view",
      "type": "function"
    },
    {
      "inputs": [],
      "name": "name",
      "outputs": [
        {
          "internalType": "string",
          "name": "",
          "type": "string"
        }
      ],
      "stateMutability": "view",
      "type": "function"
    },
    {
      "inputs": [],
      "name": "owner",
      "outputs": [
        {
          "internalType": "address payable",
          "name": "",
          "type": "address"
        }
      ],
      "stateMutability": "view",
      "type": "function"
    },
    {
      "inputs": [
        {
          "internalType": "uint256",
          "name": "tokenId",
          "type": "uint256"
        }
      ],
      "name": "ownerOf",
      "outputs": [
        {
          "internalType": "address",
          "name": "",
          "type": "address"
        }
      ],
      "stateMutability": "view",
      "type": "function"
    },
    {
      "inputs": [
        {
          "internalType": "uint256",
          "name": "tokenId",
          "type": "uint256"
        },
        {
          "internalType": "uint256",
          "name": "price",
          "type": "uint256"
        }
      ],
      "name": "resellToken",
      "outputs": [],
      "stateMutability": "payable",
      "type": "function"
    },
    {
      "inputs": [
        {
          "internalType": "address",
          "name": "from",
          "type": "address"
        },
        {
          "internalType": "address",
          "name": "to",
          "type": "address"
        },
        {
          "internalType": "uint256",
          "name": "tokenId",
          "type": "uint256"
        }
      ],
      "name": "safeTransferFrom",
      "outputs": [],
      "stateMutability": "nonpayable",
      "type": "function"
    },
    {
      "inputs": [
        {
          "internalType": "address",
          "name": "from",
          "type": "address"
        },
        {
          "internalType": "address",
          "name": "to",
          "type": "address"
        },
        {
          "internalType": "uint256",
          "name": "tokenId",
          "type": "uint256"
        },
        {
          "internalType": "bytes",
          "name": "_data",
          "type": "bytes"
        }
      ],
      "name": "safeTransferFrom",
      "outputs": [],
      "stateMutability": "nonpayable",
      "type": "function"
    },
    {
      "inputs": [],
      "name": "sendFeeToOwner",
      "outputs": [],
      "stateMutability": "payable",
      "type": "function"
    },
    {
      "inputs": [
        {
          "internalType": "address",
          "name": "operator",
          "type": "address"
        },
        {
          "internalType": "bool",
          "name": "approved",
          "type": "bool"
        }
      ],
      "name": "setApprovalForAll",
      "outputs": [],
      "stateMutability": "nonpayable",
      "type": "function"
    },
    {
      "inputs": [
        {
          "internalType": "bytes4",
          "name": "interfaceId",
          "type": "bytes4"
        }
      ],
      "name": "supportsInterface",
      "outputs": [
        {
          "internalType": "bool",
          "name": "",
          "type": "bool"
        }
      ],
      "stateMutability": "view",
      "type": "function"
    },
    {
      "inputs": [],
      "name": "symbol",
      "outputs": [
        {
          "internalType": "string",
          "name": "",
          "type": "string"
        }
      ],
      "stateMutability": "view",
      "type": "function"
    },
    {
      "inputs": [
        {
          "internalType": "uint256",
          "name": "tokenId",
          "type": "uint256"
        }
      ],
      "name": "tokenURI",
      "outputs": [
        {
          "internalType": "string",
          "name": "",
          "type": "string"
        }
      ],
      "stateMutability": "view",
      "type": "function"
    },
    {
      "inputs": [
        {
          "internalType": "address",
          "name": "from",
          "type": "address"
        },
        {
          "internalType": "address",
          "name": "to",
          "type": "address"
        },
        {
          "internalType": "uint256",
          "name": "tokenId",
          "type": "uint256"
        }
      ],
      "name": "transferFrom",
      "outputs": [],
      "stateMutability": "nonpayable",
      "type": "function"
    },
    {
      "inputs": [
        {
          "internalType": "uint256",
          "name": "_listingPrice",
          "type": "uint256"
        }
      ],
      "name": "updateListingPrice",
      "outputs": [],
      "stateMutability": "payable",
      "type": "function"
    }
  ],
  "bytecode": "0x60806040526658d15e176280006009553480156200001c57600080fd5b506040518060400160405280601081526020017f4d657461766572736520546f6b656e73000000000000000000000000000000008152506040518060400160405280600481526020017f4d455454000000000000000000000000000000000000000000000000000000008152508160009080519060200190620000a192919062000241565b508060019080519060200190620000ba92919062000241565b50505033600a60006101000a81548173ffffffffffffffffffffffffffffffffffffffff021916908373ffffffffffffffffffffffffffffffffffffffff1602179055506200016c6040518060400160405280601281526020017f636f6e7472616374206f776e6572206973200000000000000000000000000000815250600a60009054906101000a900473ffffffffffffffffffffffffffffffffffffffff166200017260201b62001bc61760201c565b62000473565b6200021482826040516024016200018b92919062000343565b6040516020818303038152906040527f319af333000000000000000000000000000000000000000000000000000000007bffffffffffffffffffffffffffffffffffffffffffffffffffffffff19166020820180517bffffffffffffffffffffffffffffffffffffffffffffffffffffffff83818316178352505050506200021860201b60201c565b5050565b60008151905060006a636f6e736f6c652e6c6f679050602083016000808483855afa5050505050565b8280546200024f90620003fd565b90600052602060002090601f016020900481019282620002735760008555620002bf565b82601f106200028e57805160ff1916838001178555620002bf565b82800160010185558215620002bf579182015b82811115620002be578251825591602001919060010190620002a1565b5b509050620002ce9190620002d2565b5090565b5b80821115620002ed576000816000905550600101620002d3565b5090565b620002fc8162000393565b82525050565b60006200030f8262000377565b6200031b818562000382565b93506200032d818560208601620003c7565b620003388162000462565b840191505092915050565b600060408201905081810360008301526200035f818562000302565b9050620003706020830184620002f1565b9392505050565b600081519050919050565b600082825260208201905092915050565b6000620003a082620003a7565b9050919050565b600073ffffffffffffffffffffffffffffffffffffffff82169050919050565b60005b83811015620003e7578082015181840152602081019050620003ca565b83811115620003f7576000848401525b50505050565b600060028204905060018216806200041657607f821691505b602082108114156200042d576200042c62000433565b5b50919050565b7f4e487b7100000000000000000000000000000000000000000000000000000000600052602260045260246000fd5b6000601f19601f8301169050919050565b61449880620004836000396000f3fe60806040526004361061014b5760003560e01c806372b3b620116100b6578063b28c08d21161006f578063b28c08d21461048c578063b88d4fde14610496578063be9af536146104bf578063c87b56dd146104db578063e219fc7514610518578063e985e9c5146105345761014b565b806372b3b62014610396578063893d20e8146103c65780638da5cb5b146103f157806395d89b411461041c578063a22cb46514610447578063ae677aa3146104705761014b565b8063202e374011610108578063202e37401461027457806323b872dd1461029f57806342842e0e146102c857806345f8fa80146102f15780636352211e1461031c57806370a08231146103595761014b565b806301ffc9a71461015057806306fdde031461018d578063081812fc146101b8578063095ea7b3146101f55780630f08efe01461021e57806312e8558514610249575b600080fd5b34801561015c57600080fd5b5061017760048036038101906101729190613010565b610571565b60405161018491906136f1565b60405180910390f35b34801561019957600080fd5b506101a2610653565b6040516101af919061370c565b60405180910390f35b3480156101c457600080fd5b506101df60048036038101906101da91906130b6565b6106e5565b6040516101ec9190613608565b60405180910390f35b34801561020157600080fd5b5061021c60048036038101906102179190612fd4565b61076a565b005b34801561022a57600080fd5b50610233610882565b60405161024091906136cf565b60405180910390f35b34801561025557600080fd5b5061025e610b37565b60405161026b91906139fe565b60405180910390f35b34801561028057600080fd5b50610289610b41565b60405161029691906136cf565b60405180910390f35b3480156102ab57600080fd5b506102c660048036038101906102c19190612ece565b610e7b565b005b3480156102d457600080fd5b506102ef60048036038101906102ea9190612ece565b610edb565b005b3480156102fd57600080fd5b50610306610efb565b60405161031391906136cf565b60405180910390f35b34801561032857600080fd5b50610343600480360381019061033e91906130b6565b611235565b6040516103509190613608565b60405180910390f35b34801561036557600080fd5b50610380600480360381019061037b9190612e69565b6112e7565b60405161038d91906139fe565b60405180910390f35b6103b060048036038101906103ab9190613062565b61139f565b6040516103bd91906139fe565b60405180910390f35b3480156103d257600080fd5b506103db6113e9565b6040516103e89190613623565b60405180910390f35b3480156103fd57600080fd5b50610406611413565b6040516104139190613623565b60405180910390f35b34801561042857600080fd5b50610431611439565b60405161043e919061370c565b60405180910390f35b34801561045357600080fd5b5061046e60048036038101906104699190612f98565b6114cb565b005b61048a600480360381019061048591906130b6565b6114e1565b005b61049461157b565b005b3480156104a257600080fd5b506104bd60048036038101906104b89190612f1d565b6115e8565b005b6104d960048036038101906104d491906130b6565b61164a565b005b3480156104e757600080fd5b5061050260048036038101906104fd91906130b6565b6117e3565b60405161050f919061370c565b60405180910390f35b610532600480360381019061052d91906130df565b611935565b005b34801561054057600080fd5b5061055b60048036038101906105569190612e92565b611b32565b60405161056891906136f1565b60405180910390f35b60007f80ac58cd000000000000000000000000000000000000000000000000000000007bffffffffffffffffffffffffffffffffffffffffffffffffffffffff1916827bffffffffffffffffffffffffffffffffffffffffffffffffffffffff1916148061063c57507f5b5e139f000000000000000000000000000000000000000000000000000000007bffffffffffffffffffffffffffffffffffffffffffffffffffffffff1916827bffffffffffffffffffffffffffffffffffffffffffffffffffffffff1916145b8061064c575061064b82611c62565b5b9050919050565b60606000805461066290613c9f565b80601f016020809104026020016040519081016040528092919081815260200182805461068e90613c9f565b80156106db5780601f106106b0576101008083540402835291602001916106db565b820191906000526020600020905b8154815290600101906020018083116106be57829003601f168201915b5050505050905090565b60006106f082611ccc565b61072f576040517f08c379a00000000000000000000000000000000000000000000000000000000081526004016107269061391e565b60405180910390fd5b6004600083815260200190815260200160002060009054906101000a900473ffffffffffffffffffffffffffffffffffffffff169050919050565b600061077582611235565b90508073ffffffffffffffffffffffffffffffffffffffff168373ffffffffffffffffffffffffffffffffffffffff1614156107e6576040517f08c379a00000000000000000000000000000000000000000000000000000000081526004016107dd9061395e565b60405180910390fd5b8073ffffffffffffffffffffffffffffffffffffffff16610805611d38565b73ffffffffffffffffffffffffffffffffffffffff16148061083457506108338161082e611d38565b611b32565b5b610873576040517f08c379a000000000000000000000000000000000000000000000000000000000815260040161086a9061383e565b60405180910390fd5b61087d8383611d40565b505050565b606060006108906007611df9565b9050600061089e6008611df9565b6108a86007611df9565b6108b29190613ba3565b90506000808267ffffffffffffffff8111156108f7577f4e487b7100000000000000000000000000000000000000000000000000000000600052604160045260246000fd5b60405190808252806020026020018201604052801561093057816020015b61091d612c30565b8152602001906001900390816109155790505b50905060005b84811015610b2c573073ffffffffffffffffffffffffffffffffffffffff16600b60006001846109669190613b1c565b815260200190815260200160002060020160009054906101000a900473ffffffffffffffffffffffffffffffffffffffff1673ffffffffffffffffffffffffffffffffffffffff161415610b195760006001826109c39190613b1c565b90506000600b60008381526020019081526020016000209050806040518060a0016040529081600082015481526020016001820160009054906101000a900473ffffffffffffffffffffffffffffffffffffffff1673ffffffffffffffffffffffffffffffffffffffff1673ffffffffffffffffffffffffffffffffffffffff1681526020016002820160009054906101000a900473ffffffffffffffffffffffffffffffffffffffff1673ffffffffffffffffffffffffffffffffffffffff1673ffffffffffffffffffffffffffffffffffffffff168152602001600382015481526020016004820160009054906101000a900460ff161515151581525050848681518110610afc577f4e487b7100000000000000000000000000000000000000000000000000000000600052603260045260246000fd5b6020026020010181905250600185610b149190613b1c565b945050505b8080610b2490613d02565b915050610936565b508094505050505090565b6000600954905090565b60606000610b4f6007611df9565b905060008060005b83811015610bf8573373ffffffffffffffffffffffffffffffffffffffff16600b6000600184610b879190613b1c565b815260200190815260200160002060020160009054906101000a900473ffffffffffffffffffffffffffffffffffffffff1673ffffffffffffffffffffffffffffffffffffffff161415610be557600183610be29190613b1c565b92505b8080610bf090613d02565b915050610b57565b5060008267ffffffffffffffff811115610c3b577f4e487b7100000000000000000000000000000000000000000000000000000000600052604160045260246000fd5b604051908082528060200260200182016040528015610c7457816020015b610c61612c30565b815260200190600190039081610c595790505b50905060005b84811015610e70573373ffffffffffffffffffffffffffffffffffffffff16600b6000600184610caa9190613b1c565b815260200190815260200160002060020160009054906101000a900473ffffffffffffffffffffffffffffffffffffffff1673ffffffffffffffffffffffffffffffffffffffff161415610e5d576000600182610d079190613b1c565b90506000600b60008381526020019081526020016000209050806040518060a0016040529081600082015481526020016001820160009054906101000a900473ffffffffffffffffffffffffffffffffffffffff1673ffffffffffffffffffffffffffffffffffffffff1673ffffffffffffffffffffffffffffffffffffffff1681526020016002820160009054906101000a900473ffffffffffffffffffffffffffffffffffffffff1673ffffffffffffffffffffffffffffffffffffffff1673ffffffffffffffffffffffffffffffffffffffff168152602001600382015481526020016004820160009054906101000a900460ff161515151581525050848681518110610e40577f4e487b7100000000000000000000000000000000000000000000000000000000600052603260045260246000fd5b6020026020010181905250600185610e589190613b1c565b945050505b8080610e6890613d02565b915050610c7a565b508094505050505090565b610e8c610e86611d38565b82611e07565b610ecb576040517f08c379a0000000000000000000000000000000000000000000000000000000008152600401610ec29061399e565b60405180910390fd5b610ed6838383611ee5565b505050565b610ef6838383604051806020016040528060008152506115e8565b505050565b60606000610f096007611df9565b905060008060005b83811015610fb2573373ffffffffffffffffffffffffffffffffffffffff16600b6000600184610f419190613b1c565b815260200190815260200160002060010160009054906101000a900473ffffffffffffffffffffffffffffffffffffffff1673ffffffffffffffffffffffffffffffffffffffff161415610f9f57600183610f9c9190613b1c565b92505b8080610faa90613d02565b915050610f11565b5060008267ffffffffffffffff811115610ff5577f4e487b7100000000000000000000000000000000000000000000000000000000600052604160045260246000fd5b60405190808252806020026020018201604052801561102e57816020015b61101b612c30565b8152602001906001900390816110135790505b50905060005b8481101561122a573373ffffffffffffffffffffffffffffffffffffffff16600b60006001846110649190613b1c565b815260200190815260200160002060010160009054906101000a900473ffffffffffffffffffffffffffffffffffffffff1673ffffffffffffffffffffffffffffffffffffffff1614156112175760006001826110c19190613b1c565b90506000600b60008381526020019081526020016000209050806040518060a0016040529081600082015481526020016001820160009054906101000a900473ffffffffffffffffffffffffffffffffffffffff1673ffffffffffffffffffffffffffffffffffffffff1673ffffffffffffffffffffffffffffffffffffffff1681526020016002820160009054906101000a900473ffffffffffffffffffffffffffffffffffffffff1673ffffffffffffffffffffffffffffffffffffffff1673ffffffffffffffffffffffffffffffffffffffff168152602001600382015481526020016004820160009054906101000a900460ff1615151515815250508486815181106111fa577f4e487b7100000000000000000000000000000000000000000000000000000000600052603260045260246000fd5b60200260200101819052506001856112129190613b1c565b945050505b808061122290613d02565b915050611034565b508094505050505090565b6000806002600084815260200190815260200160002060009054906101000a900473ffffffffffffffffffffffffffffffffffffffff169050600073ffffffffffffffffffffffffffffffffffffffff168173ffffffffffffffffffffffffffffffffffffffff1614156112de576040517f08c379a00000000000000000000000000000000000000000000000000000000081526004016112d59061387e565b60405180910390fd5b80915050919050565b60008073ffffffffffffffffffffffffffffffffffffffff168273ffffffffffffffffffffffffffffffffffffffff161415611358576040517f08c379a000000000000000000000000000000000000000000000000000000000815260040161134f9061385e565b60405180910390fd5b600360008373ffffffffffffffffffffffffffffffffffffffff1673ffffffffffffffffffffffffffffffffffffffff168152602001908152602001600020549050919050565b60006113ab600761214c565b60006113b76007611df9565b90506113c33382612162565b6113cd818561233c565b6113d781846123b0565b6113df61157b565b8091505092915050565b6000600a60009054906101000a900473ffffffffffffffffffffffffffffffffffffffff16905090565b600a60009054906101000a900473ffffffffffffffffffffffffffffffffffffffff1681565b60606001805461144890613c9f565b80601f016020809104026020016040519081016040528092919081815260200182805461147490613c9f565b80156114c15780601f10611496576101008083540402835291602001916114c1565b820191906000526020600020905b8154815290600101906020018083116114a457829003601f168201915b5050505050905090565b6114dd6114d6611d38565b83836125b3565b5050565b3373ffffffffffffffffffffffffffffffffffffffff16600a60009054906101000a900473ffffffffffffffffffffffffffffffffffffffff1673ffffffffffffffffffffffffffffffffffffffff1614611571576040517f08c379a0000000000000000000000000000000000000000000000000000000008152600401611568906139be565b60405180910390fd5b8060098190555050565b600a60009054906101000a900473ffffffffffffffffffffffffffffffffffffffff1673ffffffffffffffffffffffffffffffffffffffff166108fc6009549081150290604051600060405180830381858888f193505050501580156115e5573d6000803e3d6000fd5b50565b6115f96115f3611d38565b83611e07565b611638576040517f08c379a000000000000000000000000000000000000000000000000000000000815260040161162f9061399e565b60405180910390fd5b61164484848484612720565b50505050565b6000600b60008381526020019081526020016000206003015490506000600b600084815260200190815260200160002060010160009054906101000a900473ffffffffffffffffffffffffffffffffffffffff16905033600b600085815260200190815260200160002060020160006101000a81548173ffffffffffffffffffffffffffffffffffffffff021916908373ffffffffffffffffffffffffffffffffffffffff1602179055506001600b600085815260200190815260200160002060040160006101000a81548160ff0219169083151502179055506000600b600085815260200190815260200160002060010160006101000a81548173ffffffffffffffffffffffffffffffffffffffff021916908373ffffffffffffffffffffffffffffffffffffffff160217905550611784600861214c565b61178f303385611ee5565b8073ffffffffffffffffffffffffffffffffffffffff166108fc839081150290604051600060405180830381858888f193505050501580156117d5573d6000803e3d6000fd5b506117de61157b565b505050565b60606117ee82611ccc565b61182d576040517f08c379a0000000000000000000000000000000000000000000000000000000008152600401611824906138de565b60405180910390fd5b600060066000848152602001908152602001600020805461184d90613c9f565b80601f016020809104026020016040519081016040528092919081815260200182805461187990613c9f565b80156118c65780601f1061189b576101008083540402835291602001916118c6565b820191906000526020600020905b8154815290600101906020018083116118a957829003601f168201915b5050505050905060006118d761277c565b90506000815114156118ed578192505050611930565b60008251111561192257808260405160200161190a9291906135e4565b60405160208183030381529060405292505050611930565b61192b84612793565b925050505b919050565b3373ffffffffffffffffffffffffffffffffffffffff16600b600084815260200190815260200160002060020160009054906101000a900473ffffffffffffffffffffffffffffffffffffffff1673ffffffffffffffffffffffffffffffffffffffff16146119d9576040517f08c379a00000000000000000000000000000000000000000000000000000000081526004016119d0906138fe565b60405180910390fd5b6009543414611a1d576040517f08c379a0000000000000000000000000000000000000000000000000000000008152600401611a149061397e565b60405180910390fd5b6000600b600084815260200190815260200160002060040160006101000a81548160ff02191690831515021790555080600b60008481526020019081526020016000206003018190555033600b600084815260200190815260200160002060010160006101000a81548173ffffffffffffffffffffffffffffffffffffffff021916908373ffffffffffffffffffffffffffffffffffffffff16021790555030600b600084815260200190815260200160002060020160006101000a81548173ffffffffffffffffffffffffffffffffffffffff021916908373ffffffffffffffffffffffffffffffffffffffff160217905550611b1b600861283a565b611b26333084611ee5565b611b2e61157b565b5050565b6000600560008473ffffffffffffffffffffffffffffffffffffffff1673ffffffffffffffffffffffffffffffffffffffff16815260200190815260200160002060008373ffffffffffffffffffffffffffffffffffffffff1673ffffffffffffffffffffffffffffffffffffffff16815260200190815260200160002060009054906101000a900460ff16905092915050565b611c5e8282604051602401611bdc92919061372e565b6040516020818303038152906040527f319af333000000000000000000000000000000000000000000000000000000007bffffffffffffffffffffffffffffffffffffffffffffffffffffffff19166020820180517bffffffffffffffffffffffffffffffffffffffffffffffffffffffff8381831617835250505050612896565b5050565b60007f01ffc9a7000000000000000000000000000000000000000000000000000000007bffffffffffffffffffffffffffffffffffffffffffffffffffffffff1916827bffffffffffffffffffffffffffffffffffffffffffffffffffffffff1916149050919050565b60008073ffffffffffffffffffffffffffffffffffffffff166002600084815260200190815260200160002060009054906101000a900473ffffffffffffffffffffffffffffffffffffffff1673ffffffffffffffffffffffffffffffffffffffff1614159050919050565b600033905090565b816004600083815260200190815260200160002060006101000a81548173ffffffffffffffffffffffffffffffffffffffff021916908373ffffffffffffffffffffffffffffffffffffffff160217905550808273ffffffffffffffffffffffffffffffffffffffff16611db383611235565b73ffffffffffffffffffffffffffffffffffffffff167f8c5be1e5ebec7d5bd14f71427d1e84f3dd0314c0f7b2291e5b200ac8c7c3b92560405160405180910390a45050565b600081600001549050919050565b6000611e1282611ccc565b611e51576040517f08c379a0000000000000000000000000000000000000000000000000000000008152600401611e489061381e565b60405180910390fd5b6000611e5c83611235565b90508073ffffffffffffffffffffffffffffffffffffffff168473ffffffffffffffffffffffffffffffffffffffff161480611ecb57508373ffffffffffffffffffffffffffffffffffffffff16611eb3846106e5565b73ffffffffffffffffffffffffffffffffffffffff16145b80611edc5750611edb8185611b32565b5b91505092915050565b8273ffffffffffffffffffffffffffffffffffffffff16611f0582611235565b73ffffffffffffffffffffffffffffffffffffffff1614611f5b576040517f08c379a0000000000000000000000000000000000000000000000000000000008152600401611f529061379e565b60405180910390fd5b600073ffffffffffffffffffffffffffffffffffffffff168273ffffffffffffffffffffffffffffffffffffffff161415611fcb576040517f08c379a0000000000000000000000000000000000000000000000000000000008152600401611fc2906137de565b60405180910390fd5b611fd68383836128bf565b611fe1600082611d40565b6001600360008573ffffffffffffffffffffffffffffffffffffffff1673ffffffffffffffffffffffffffffffffffffffff16815260200190815260200160002060008282546120319190613ba3565b925050819055506001600360008473ffffffffffffffffffffffffffffffffffffffff1673ffffffffffffffffffffffffffffffffffffffff16815260200190815260200160002060008282546120889190613b1c565b92505081905550816002600083815260200190815260200160002060006101000a81548173ffffffffffffffffffffffffffffffffffffffff021916908373ffffffffffffffffffffffffffffffffffffffff160217905550808273ffffffffffffffffffffffffffffffffffffffff168473ffffffffffffffffffffffffffffffffffffffff167fddf252ad1be2c89b69c2b068fc378daa952ba7f163c4a11628f55a4df523b3ef60405160405180910390a46121478383836128c4565b505050565b6001816000016000828254019250508190555050565b600073ffffffffffffffffffffffffffffffffffffffff168273ffffffffffffffffffffffffffffffffffffffff1614156121d2576040517f08c379a00000000000000000000000000000000000000000000000000000000081526004016121c9906138be565b60405180910390fd5b6121db81611ccc565b1561221b576040517f08c379a0000000000000000000000000000000000000000000000000000000008152600401612212906137be565b60405180910390fd5b612227600083836128bf565b6001600360008473ffffffffffffffffffffffffffffffffffffffff1673ffffffffffffffffffffffffffffffffffffffff16815260200190815260200160002060008282546122779190613b1c565b92505081905550816002600083815260200190815260200160002060006101000a81548173ffffffffffffffffffffffffffffffffffffffff021916908373ffffffffffffffffffffffffffffffffffffffff160217905550808273ffffffffffffffffffffffffffffffffffffffff16600073ffffffffffffffffffffffffffffffffffffffff167fddf252ad1be2c89b69c2b068fc378daa952ba7f163c4a11628f55a4df523b3ef60405160405180910390a4612338600083836128c4565b5050565b61234582611ccc565b612384576040517f08c379a000000000000000000000000000000000000000000000000000000000815260040161237b9061389e565b60405180910390fd5b806006600084815260200190815260200160002090805190602001906123ab929190612c8d565b505050565b600081116123f3576040517f08c379a00000000000000000000000000000000000000000000000000000000081526004016123ea906139de565b60405180910390fd5b6009543414612437576040517f08c379a000000000000000000000000000000000000000000000000000000000815260040161242e9061397e565b60405180910390fd5b6040518060a001604052808381526020013373ffffffffffffffffffffffffffffffffffffffff1681526020013073ffffffffffffffffffffffffffffffffffffffff16815260200182815260200160001515815250600b60008481526020019081526020016000206000820151816000015560208201518160010160006101000a81548173ffffffffffffffffffffffffffffffffffffffff021916908373ffffffffffffffffffffffffffffffffffffffff16021790555060408201518160020160006101000a81548173ffffffffffffffffffffffffffffffffffffffff021916908373ffffffffffffffffffffffffffffffffffffffff1602179055506060820151816003015560808201518160040160006101000a81548160ff021916908315150217905550905050612570333084611ee5565b817fb640004f1d14576d0c209e240cad0410e0d8c0c33a09375861fbadae2588a98d33308460006040516125a7949392919061363e565b60405180910390a25050565b8173ffffffffffffffffffffffffffffffffffffffff168373ffffffffffffffffffffffffffffffffffffffff161415612622576040517f08c379a0000000000000000000000000000000000000000000000000000000008152600401612619906137fe565b60405180910390fd5b80600560008573ffffffffffffffffffffffffffffffffffffffff1673ffffffffffffffffffffffffffffffffffffffff16815260200190815260200160002060008473ffffffffffffffffffffffffffffffffffffffff1673ffffffffffffffffffffffffffffffffffffffff16815260200190815260200160002060006101000a81548160ff0219169083151502179055508173ffffffffffffffffffffffffffffffffffffffff168373ffffffffffffffffffffffffffffffffffffffff167f17307eab39ab6107e8899845ad3d59bd9653f200f220920489ca2b5937696c318360405161271391906136f1565b60405180910390a3505050565b61272b848484611ee5565b612737848484846128c9565b612776576040517f08c379a000000000000000000000000000000000000000000000000000000000815260040161276d9061377e565b60405180910390fd5b50505050565b606060405180602001604052806000815250905090565b606061279e82611ccc565b6127dd576040517f08c379a00000000000000000000000000000000000000000000000000000000081526004016127d49061393e565b60405180910390fd5b60006127e761277c565b905060008151116128075760405180602001604052806000815250612832565b8061281184612a60565b6040516020016128229291906135e4565b6040516020818303038152906040525b915050919050565b60008160000154905060008111612886576040517f08c379a000000000000000000000000000000000000000000000000000000000815260040161287d9061375e565b60405180910390fd5b6001810382600001819055505050565b60008151905060006a636f6e736f6c652e6c6f679050602083016000808483855afa5050505050565b505050565b505050565b60006128ea8473ffffffffffffffffffffffffffffffffffffffff16612c0d565b15612a53578373ffffffffffffffffffffffffffffffffffffffff1663150b7a02612913611d38565b8786866040518563ffffffff1660e01b81526004016129359493929190613683565b602060405180830381600087803b15801561294f57600080fd5b505af192505050801561298057506040513d601f19601f8201168201806040525081019061297d9190613039565b60015b612a03573d80600081146129b0576040519150601f19603f3d011682016040523d82523d6000602084013e6129b5565b606091505b506000815114156129fb576040517f08c379a00000000000000000000000000000000000000000000000000000000081526004016129f29061377e565b60405180910390fd5b805181602001fd5b63150b7a0260e01b7bffffffffffffffffffffffffffffffffffffffffffffffffffffffff1916817bffffffffffffffffffffffffffffffffffffffffffffffffffffffff191614915050612a58565b600190505b949350505050565b60606000821415612aa8576040518060400160405280600181526020017f30000000000000000000000000000000000000000000000000000000000000008152509050612c08565b600082905060005b60008214612ada578080612ac390613d02565b915050600a82612ad39190613b72565b9150612ab0565b60008167ffffffffffffffff811115612b1c577f4e487b7100000000000000000000000000000000000000000000000000000000600052604160045260246000fd5b6040519080825280601f01601f191660200182016040528015612b4e5781602001600182028036833780820191505090505b5090505b60008514612c0157600182612b679190613ba3565b9150600a85612b769190613d4b565b6030612b829190613b1c565b60f81b818381518110612bbe577f4e487b7100000000000000000000000000000000000000000000000000000000600052603260045260246000fd5b60200101907effffffffffffffffffffffffffffffffffffffffffffffffffffffffffffff1916908160001a905350600a85612bfa9190613b72565b9450612b52565b8093505050505b919050565b6000808273ffffffffffffffffffffffffffffffffffffffff163b119050919050565b6040518060a0016040528060008152602001600073ffffffffffffffffffffffffffffffffffffffff168152602001600073ffffffffffffffffffffffffffffffffffffffff168152602001600081526020016000151581525090565b828054612c9990613c9f565b90600052602060002090601f016020900481019282612cbb5760008555612d02565b82601f10612cd457805160ff1916838001178555612d02565b82800160010185558215612d02579182015b82811115612d01578251825591602001919060010190612ce6565b5b509050612d0f9190612d13565b5090565b5b80821115612d2c576000816000905550600101612d14565b5090565b6000612d43612d3e84613a3e565b613a19565b905082815260208101848484011115612d5b57600080fd5b612d66848285613c5d565b509392505050565b6000612d81612d7c84613a6f565b613a19565b905082815260208101848484011115612d9957600080fd5b612da4848285613c5d565b509392505050565b600081359050612dbb81614406565b92915050565b600081359050612dd08161441d565b92915050565b600081359050612de581614434565b92915050565b600081519050612dfa81614434565b92915050565b600082601f830112612e1157600080fd5b8135612e21848260208601612d30565b91505092915050565b600082601f830112612e3b57600080fd5b8135612e4b848260208601612d6e565b91505092915050565b600081359050612e638161444b565b92915050565b600060208284031215612e7b57600080fd5b6000612e8984828501612dac565b91505092915050565b60008060408385031215612ea557600080fd5b6000612eb385828601612dac565b9250506020612ec485828601612dac565b9150509250929050565b600080600060608486031215612ee357600080fd5b6000612ef186828701612dac565b9350506020612f0286828701612dac565b9250506040612f1386828701612e54565b9150509250925092565b60008060008060808587031215612f3357600080fd5b6000612f4187828801612dac565b9450506020612f5287828801612dac565b9350506040612f6387828801612e54565b925050606085013567ffffffffffffffff811115612f8057600080fd5b612f8c87828801612e00565b91505092959194509250565b60008060408385031215612fab57600080fd5b6000612fb985828601612dac565b9250506020612fca85828601612dc1565b9150509250929050565b60008060408385031215612fe757600080fd5b6000612ff585828601612dac565b925050602061300685828601612e54565b9150509250929050565b60006020828403121561302257600080fd5b600061303084828501612dd6565b91505092915050565b60006020828403121561304b57600080fd5b600061305984828501612deb565b91505092915050565b6000806040838503121561307557600080fd5b600083013567ffffffffffffffff81111561308f57600080fd5b61309b85828601612e2a565b92505060206130ac85828601612e54565b9150509250929050565b6000602082840312156130c857600080fd5b60006130d684828501612e54565b91505092915050565b600080604083850312156130f257600080fd5b600061310085828601612e54565b925050602061311185828601612e54565b9150509250929050565b6000613127838361355e565b60a08301905092915050565b61313c81613be9565b82525050565b61314b81613be9565b82525050565b61315a81613bd7565b82525050565b600061316b82613ab0565b6131758185613ade565b935061318083613aa0565b8060005b838110156131b1578151613198888261311b565b97506131a383613ad1565b925050600181019050613184565b5085935050505092915050565b6131c781613bfb565b82525050565b6131d681613bfb565b82525050565b60006131e782613abb565b6131f18185613aef565b9350613201818560208601613c6c565b61320a81613e38565b840191505092915050565b600061322082613ac6565b61322a8185613b00565b935061323a818560208601613c6c565b61324381613e38565b840191505092915050565b600061325982613ac6565b6132638185613b11565b9350613273818560208601613c6c565b80840191505092915050565b600061328c601b83613b00565b915061329782613e49565b602082019050919050565b60006132af603283613b00565b91506132ba82613e72565b604082019050919050565b60006132d2602583613b00565b91506132dd82613ec1565b604082019050919050565b60006132f5601c83613b00565b915061330082613f10565b602082019050919050565b6000613318602483613b00565b915061332382613f39565b604082019050919050565b600061333b601983613b00565b915061334682613f88565b602082019050919050565b600061335e602c83613b00565b915061336982613fb1565b604082019050919050565b6000613381603883613b00565b915061338c82614000565b604082019050919050565b60006133a4602a83613b00565b91506133af8261404f565b604082019050919050565b60006133c7602983613b00565b91506133d28261409e565b604082019050919050565b60006133ea602e83613b00565b91506133f5826140ed565b604082019050919050565b600061340d602083613b00565b91506134188261413c565b602082019050919050565b6000613430603183613b00565b915061343b82614165565b604082019050919050565b6000613453602a83613b00565b915061345e826141b4565b604082019050919050565b6000613476602c83613b00565b915061348182614203565b604082019050919050565b6000613499602f83613b00565b91506134a482614252565b604082019050919050565b60006134bc602183613b00565b91506134c7826142a1565b604082019050919050565b60006134df602483613b00565b91506134ea826142f0565b604082019050919050565b6000613502603183613b00565b915061350d8261433f565b604082019050919050565b6000613525603083613b00565b91506135308261438e565b604082019050919050565b6000613548601c83613b00565b9150613553826143dd565b602082019050919050565b60a08201600082015161357460008501826135c6565b5060208201516135876020850182613133565b50604082015161359a6040850182613133565b5060608201516135ad60608501826135c6565b5060808201516135c060808501826131be565b50505050565b6135cf81613c53565b82525050565b6135de81613c53565b82525050565b60006135f0828561324e565b91506135fc828461324e565b91508190509392505050565b600060208201905061361d6000830184613151565b92915050565b60006020820190506136386000830184613142565b92915050565b60006080820190506136536000830187613151565b6136606020830186613151565b61366d60408301856135d5565b61367a60608301846131cd565b95945050505050565b60006080820190506136986000830187613151565b6136a56020830186613151565b6136b260408301856135d5565b81810360608301526136c481846131dc565b905095945050505050565b600060208201905081810360008301526136e98184613160565b905092915050565b600060208201905061370660008301846131cd565b92915050565b600060208201905081810360008301526137268184613215565b905092915050565b600060408201905081810360008301526137488185613215565b90506137576020830184613151565b9392505050565b600060208201905081810360008301526137778161327f565b9050919050565b60006020820190508181036000830152613797816132a2565b9050919050565b600060208201905081810360008301526137b7816132c5565b9050919050565b600060208201905081810360008301526137d7816132e8565b9050919050565b600060208201905081810360008301526137f78161330b565b9050919050565b600060208201905081810360008301526138178161332e565b9050919050565b6000602082019050818103600083015261383781613351565b9050919050565b6000602082019050818103600083015261385781613374565b9050919050565b6000602082019050818103600083015261387781613397565b9050919050565b60006020820190508181036000830152613897816133ba565b9050919050565b600060208201905081810360008301526138b7816133dd565b9050919050565b600060208201905081810360008301526138d781613400565b9050919050565b600060208201905081810360008301526138f781613423565b9050919050565b6000602082019050818103600083015261391781613446565b9050919050565b6000602082019050818103600083015261393781613469565b9050919050565b600060208201905081810360008301526139578161348c565b9050919050565b60006020820190508181036000830152613977816134af565b9050919050565b60006020820190508181036000830152613997816134d2565b9050919050565b600060208201905081810360008301526139b7816134f5565b9050919050565b600060208201905081810360008301526139d781613518565b9050919050565b600060208201905081810360008301526139f78161353b565b9050919050565b6000602082019050613a1360008301846135d5565b92915050565b6000613a23613a34565b9050613a2f8282613cd1565b919050565b6000604051905090565b600067ffffffffffffffff821115613a5957613a58613e09565b5b613a6282613e38565b9050602081019050919050565b600067ffffffffffffffff821115613a8a57613a89613e09565b5b613a9382613e38565b9050602081019050919050565b6000819050602082019050919050565b600081519050919050565b600081519050919050565b600081519050919050565b6000602082019050919050565b600082825260208201905092915050565b600082825260208201905092915050565b600082825260208201905092915050565b600081905092915050565b6000613b2782613c53565b9150613b3283613c53565b9250827fffffffffffffffffffffffffffffffffffffffffffffffffffffffffffffffff03821115613b6757613b66613d7c565b5b828201905092915050565b6000613b7d82613c53565b9150613b8883613c53565b925082613b9857613b97613dab565b5b828204905092915050565b6000613bae82613c53565b9150613bb983613c53565b925082821015613bcc57613bcb613d7c565b5b828203905092915050565b6000613be282613c33565b9050919050565b6000613bf482613c33565b9050919050565b60008115159050919050565b60007fffffffff0000000000000000000000000000000000000000000000000000000082169050919050565b600073ffffffffffffffffffffffffffffffffffffffff82169050919050565b6000819050919050565b82818337600083830152505050565b60005b83811015613c8a578082015181840152602081019050613c6f565b83811115613c99576000848401525b50505050565b60006002820490506001821680613cb757607f821691505b60208210811415613ccb57613cca613dda565b5b50919050565b613cda82613e38565b810181811067ffffffffffffffff82111715613cf957613cf8613e09565b5b80604052505050565b6000613d0d82613c53565b91507fffffffffffffffffffffffffffffffffffffffffffffffffffffffffffffffff821415613d4057613d3f613d7c565b5b600182019050919050565b6000613d5682613c53565b9150613d6183613c53565b925082613d7157613d70613dab565b5b828206905092915050565b7f4e487b7100000000000000000000000000000000000000000000000000000000600052601160045260246000fd5b7f4e487b7100000000000000000000000000000000000000000000000000000000600052601260045260246000fd5b7f4e487b7100000000000000000000000000000000000000000000000000000000600052602260045260246000fd5b7f4e487b7100000000000000000000000000000000000000000000000000000000600052604160045260246000fd5b6000601f19601f8301169050919050565b7f436f756e7465723a2064656372656d656e74206f766572666c6f770000000000600082015250565b7f4552433732313a207472616e7366657220746f206e6f6e20455243373231526560008201527f63656976657220696d706c656d656e7465720000000000000000000000000000602082015250565b7f4552433732313a207472616e736665722066726f6d20696e636f72726563742060008201527f6f776e6572000000000000000000000000000000000000000000000000000000602082015250565b7f4552433732313a20746f6b656e20616c7265616479206d696e74656400000000600082015250565b7f4552433732313a207472616e7366657220746f20746865207a65726f2061646460008201527f7265737300000000000000000000000000000000000000000000000000000000602082015250565b7f4552433732313a20617070726f766520746f2063616c6c657200000000000000600082015250565b7f4552433732313a206f70657261746f7220717565727920666f72206e6f6e657860008201527f697374656e7420746f6b656e0000000000000000000000000000000000000000602082015250565b7f4552433732313a20617070726f76652063616c6c6572206973206e6f74206f7760008201527f6e6572206e6f7220617070726f76656420666f7220616c6c0000000000000000602082015250565b7f4552433732313a2062616c616e636520717565727920666f7220746865207a6560008201527f726f206164647265737300000000000000000000000000000000000000000000602082015250565b7f4552433732313a206f776e657220717565727920666f72206e6f6e657869737460008201527f656e7420746f6b656e0000000000000000000000000000000000000000000000602082015250565b7f45524337323155524953746f726167653a2055524920736574206f66206e6f6e60008201527f6578697374656e7420746f6b656e000000000000000000000000000000000000602082015250565b7f4552433732313a206d696e7420746f20746865207a65726f2061646472657373600082015250565b7f45524337323155524953746f726167653a2055524920717565727920666f722060008201527f6e6f6e6578697374656e7420746f6b656e000000000000000000000000000000602082015250565b7f4f6e6c79206974656d206f776e65722063616e20706572666f726d207468697360008201527f206f7065726174696f6e00000000000000000000000000000000000000000000602082015250565b7f4552433732313a20617070726f76656420717565727920666f72206e6f6e657860008201527f697374656e7420746f6b656e0000000000000000000000000000000000000000602082015250565b7f4552433732314d657461646174613a2055524920717565727920666f72206e6f60008201527f6e6578697374656e7420746f6b656e0000000000000000000000000000000000602082015250565b7f4552433732313a20617070726f76616c20746f2063757272656e74206f776e6560008201527f7200000000000000000000000000000000000000000000000000000000000000602082015250565b7f5072696365206d75737420626520657175616c20746f206c697374696e67207060008201527f7269636500000000000000000000000000000000000000000000000000000000602082015250565b7f4552433732313a207472616e736665722063616c6c6572206973206e6f74206f60008201527f776e6572206e6f7220617070726f766564000000000000000000000000000000602082015250565b7f4f6e6c79206d61726b6574706c616365206f776e65722063616e20757064617460008201527f65206c697374696e672070726963652e00000000000000000000000000000000602082015250565b7f5072696365206d757374206265206174206c6561737420312077656900000000600082015250565b61440f81613bd7565b811461441a57600080fd5b50565b61442681613bfb565b811461443157600080fd5b50565b61443d81613c07565b811461444857600080fd5b50565b61445481613c53565b811461445f57600080fd5b5056fea2646970667358221220775c802de413c19275270cfa1454c7f28b3f4cbb8ac9d78a73cfc7ae3451d42664736f6c63430008040033",
  "linkReferences": {},
  "deployedLinkReferences": {}
}